:0300000002087E75
:0C087E00787FE4F6D8FD758107020800C1
:10080000758920759850758DFDD28E7F387E0012C7
:10081000088A7F0E7E0012088A7F017E0012088AF5
:100820007F807E0012088A7F417E001208967599AB
:100830004C3099FDC2997599413099FDC2997599CD
:10084000423099FDC2993098FD859990C2983098B0
:08085000FD859990C29880B368
:0C088A008F90C2A1C2A0120858C2A22286
:0C0896008F90C2A1D2A0120858C2A2226A
:06085800D2A27F0A7E001F
:10085E00E4FDFCC3ED9FEC9E5015E4FBFA0BBB00D0
:0F086E00010AEB64714A70F50DBD00010C80E4C6
:01087D002258
:00000001FF
